:020000040000FA
:0600000007EF01F0120001
:020006000000F8
:08000800D9CFE6FFE1CFD9FFDB
:10001000020EE126F80E9516DE6ADD6ADECF00F0EC
:10002000DDCF01F0D890015004E6050E005C000E13
:10003000015813E2F40EE66E010EE66E5ED8E5524C
:10004000E55283708350010B02E0839201D08382DA
:10005000DF2A010E01E3DB2AE1D7DE6ADD6ADECFAB
:1000600000F0DDCF01F0D890015004E6050E005CF1
:10007000000E015817E2F40EE66E010EE66E3DD852
:10008000E552E55283808382F40EE66E010EE66E41
:1000900034D8E552E55283908392DF2A010E01E3C2
:1000A000DB2ADDD7DE6ADD6ADECF00F0DDCF01F0CE
:1000B000D890015004E6140E005C000E015812E2C4
:1000C000C80EE66EE66A19D8E552E5528370835091
:1000D000010B02E0839201D08382DF2A010E01E34B
:1000E000DB2AE2D799D7020EE15C02E2E16AE5522F
:1000F000E16EE552E7CFD9FF1200D9CFE6FFE1CF9D
:10010000D9FF020EE126DE6ADD6ADECF00F0DDCF28
:1001100001F0FD0EDBCF02F0FE0EDBCF03F002504C
:10012000005C035001580AE2050EE66EF7EC00F0A1
:10013000E552DF2A010E01E3DB2AE7D7020EE15C7C
:1001400002E2E16AE552E16EE552E7CFD9FF120023
:10015000060EF66E000EF76E000EF86E0001090036
:10016000F550856F0900F550866F03E1856701D072
:100170003DD00900F550806F0900F550816F0900EE
:10018000F550826F09000900F550E96E0900F5503D
:10019000EA6E090009000900F550836F0900F55067
:1001A000846F09000900F6CF87F0F7CF88F0F8CF09
:1001B00089F080C0F6FF81C0F7FF82C0F8FF000120
:1001C000835302E1845307E00900F550EE6E830784
:1001D000F8E28407F9D787C0F6FF88C0F7FF89C027
:0E01E000F8FF00018507000E865BBFD71200F6
:0201EE00FF0E02
:1001F000E350066E480E01D04C0EE76EE72EFED798
:0E020000E76AE72EFED7062EF7D700001200A1
:02020E001EEEE2
:1002100000F02EEE00F0F86A059CA8EC00F01CEC53
:0A02200001F004EC00F0FBD712001F
:06022A0000EE00F00F0ED3
:08023000EE6AEA62FDD712003C
:020238001200B2
:00000001FF
