:020000040000FA
:0600000094EF01F0120074
:020006000000F8
:08000800D9CFE6FFE1CFD9FFDB
:10001000E65222D9DF6A040EDF5C34E2DF5008E1E9
:10002000640EE66EE66AEDD8E552E5528C7008D0B3
:10003000640EE66EE66AE5D8E552E5528C708B7880
:10004000640EE66EE66ADDD8E552E5528C728C707D
:10005000640EE66EE66AD5D8E552E5528C748C7271
:10006000640EE66EE66ACDD8E552E5528C768C7465
:10007000640EE66EE66AC5D8E552E5528B788C765A
:10008000DF2AC9D78B78DF6A040EDF5C34E2DF50E9
:1000900008E1640EE66EE66AB4D8E552E5528B7864
:1000A00008D0640EE66EE66AACD8E552E5528B786D
:1000B0008C70640EE66EE66AA4D8E552E5528C7642
:1000C0008B78640EE66EE66A9CD8E552E5528C7435
:1000D0008C76640EE66EE66A94D8E552E5528C7230
:1000E0008C74640EE66EE66A8CD8E552E5528C702C
:1000F0008C72DF2AC9D78C70DF6A040EDF5C29E2BC
:10010000DF5009E1640EE66EE66A7BD8E552E552FF
:100110008C708B7809D0640EE66EE66A72D8E55270
:10012000E5528B788C708C74640EE66EE66A69D842
:10013000E552E5528C708B788C728C76640EE66E8C
:10014000E66A5FD8E552E5528C728C768C74DF2AB1
:10015000D4D78C74DF6A040EDF5C4CE2DF5008E118
:10016000640EE66EE66A4DD8E552E5528C7008D012
:10017000640EE66EE66A45D8E552E5528C708C72E4
:10018000640EE66EE66A3DD8E552E5528C708C72DC
:10019000640EE66EE66A35D8E552E5528C748C72D0
:1001A000640EE66EE66A2DD8E552E5528C768C74C4
:1001B000640EE66EE66A25D8E552E5528B788C76B9
:1001C000640EE66EE66A1DD8E552E5528C768B78B1
:1001D000640EE66EE66A15D8E552E5528C748C76AC
:1001E000640EE66EE66A0DD8E552E5528C728C74A8
:1001F000DF2AB1D78C720ED7E552E552E7CFD9FF8F
:100200001200D9CFE6FFE1CFD9FF020EE126DE6A68
:10021000DD6ADECF00F0DDCF01F0FD0EDBCF02F0B6
:10022000FE0EDBCF03F00250005C035001580AE2DF
:10023000050EE66E84EC01F0E552DF2A010E01E3C3
:10024000DB2AE7D7020EE15C02E2E16AE552E16EE9
:10025000E552E7CFD9FF1200F00E951694988C90D6
:0A0260008C928C948C968B981200FF
:06026A00060EF66E000E08
:10027000F76E000EF86E00010900F550856F090059
:10028000F550866F03E1856701D03DD00900F55038
:10029000806F0900F550816F0900F550826F0900E9
:1002A0000900F550E96E0900F550EA6E09000900F1
:1002B0000900F550836F0900F550846F09000900AB
:1002C000F6CF87F0F7CF88F0F8CF89F080C0F6FF3F
:1002D00081C0F7FF82C0F8FF0001835302E184531D
:1002E00007E00900F550EE6E8307F8E28407F9D7BE
:1002F00087C0F6FF88C0F7FF89C0F8FF00018507B7
:08030000000E865BBFD712005E
:08030800FF0EE350066E480EE3
:1003100001D04C0EE76EE72EFED7E76AE72EFED738
:08032000062EF7D700001200C1
:080328001EEE00F02EEE00F0C5
:10033000F86A059C35EC01F0A9EC01F004EC00F042
:04034000FBD71200D5
:0C03440000EE00F00F0EEE6AEA62FDD73A
:02035000120099
:02035200120097
:00000001FF
