:10000000F9EF01F00000000000EF00F00000000038
:0A0010000000000000000000F3D71C
:0A001C00530E0D6E0D2EFED71200DC
:10002600240E0C6EB50E0D6E0D2EFED70C2EFCD7C3
:06003600000000001200B2
:0C003C00000000000000000000001200A6
:100048004BBE02D08C9E01D08C8E4BBC02D08C9CB7
:1000580001D08C8C4BBA02D08C9A01D08C8A4BB8C8
:1000680002D08C9801D08C881CB002D08D8001D031
:100078008D908D82DFDF8D924BB602D08C9E01D0A1
:100088008C8E4BB402D08C9C01D08C8C4BB202D09D
:100098008C9A01D08C8A4BB002D08C9801D08C8875
:1000A8001CB002D08D8001D08D908D82C3DF8D92DF
:0C00B8001CA002D0B4DF01D0ADDF1200AC
:0C00C4001C904AC04BF0BEDF1C801200F4
:1000D0000900F5CFE6FF0006FBE10106F9E1120099
:1000E000086A096A100E0C6E01340836093604508D
:1000F000085E0550D8A0053C095ED8B007D0045072
:1001000008260550D8B0053C0926D890003601369F
:060110000C2EEAD71200DC
:100116000FD0800E456E19D0C00E456E16D0940EC7
:10012600456E13D0D40E456E10D0800E456E0DD0A0
:100136004550010AEEE04550020AEEE04550030A3A
:10014600EEE04550040AEEE0F0D74604006E455056
:10015600002600C045F000C04BF073DF1C90496AD2
:1001660049504724E96E000E4820EA6EEE520BE035
:1001760049504724E96E000E4820EA6EEECF4AF059
:0A0186009EDF492AEDD71C8012000D
:0C019000100E0D6E0D2EFED700001200A8
:10019C00456A476A486A100E496E040E485C1DE2B7
:1001AC00F00E826E491C946E43DF42DF0F0E8214F8
:1001BC00006E00C046F000520AE047C045F04652BF
:1001CC0004E04632469E452AFAD7040E486E49365C
:1001DC004990040E4726482AE0D745C000F012008B
:1001EC00500EF66E050EF76E000EF86E230EE16ED5
:1001FC00000EE26E220E006E010E016E63DF010E28
:10020C004B6E1CDF0C0E4B6E19DF010E456E010E92
:10021C00466E230E476E000E486E77DF020E456E5B
:10022C00010E466E340E476E000E486E6EDF210EC8
:10023C000B6EFA0E0C6E770E0D6E0D2EFED70C2E6D
:08024C00FCD70B2EFAD71200BB
:10025400969296909598959A959C959E8D928D9050
:100264008C9E8C9C8C9A8C98DCDEDBDEDADE8C8AAD
:100274008C888D82E1DE8D92D4DE8D82DDDE8D92DE
:10028400D0DE8D82D9DE8D92CCDE8C988D82D4DE48
:100294008D92C7DE8D82D0DE8D928C9A8C8E8D826B
:1002A400CBDE8D92BEDE8C9E8C888D82C5DE8D92D7
:1002B4008C988D82C1DE8D92B4DE8D82BDDE8D92EE
:1002C4008C888D82B9DE8D92ACDE8C988D82B4DE02
:1002D4008D928C8E8C8C8C8A8C888D82ADDE8D92E6
:0602E400A0DE1C801200E8
:0602EA00FF0E946E1200ED
:1002F000276A050E275C0AE227502524E16E000ECE
:100300002620E26E200EE66E272AF3D727502524FA
:10031000E16E000E2620E26EE66A270627502524AD
:10032000286E000E2620296E0A0E046E000E056E41
:1003300023C000F024C001F0D3DE08C000F009C0E3
:1003400001F0300E002628C0E1FF29C0E2FF00C006
:10035000E6FF0A0E046E000E056E23C000F024C0F6
:1003600001F0BEDE00C023F001C024F0000E011831
:1003700002E1000E001801E102D02706CFD71200DB
:100380000FD0800E236E19D0C00E236E16D0940E9F
:10039000236E13D0D40E236E10D0800E236E0DD09A
:1003A0002350010AEEE02350020AEEE02350030A34
:1003B000EEE02350040AEEE0F0D72404006E235050
:1003C000002600C023F01C8000C04BF03DDE1C90D6
:0A03D00025C04BF039DE1C8012003E
:1003DA00E0DE00C023F00F0E8214006E02E0D3DECE
:0803EA00FAD723C000F0120055
:1003F200200E156E200E166E200E176E186A196AE0
:100402001B6A72DF7E6A7F6A24DF010E4B6E1BDE7F
:100412000C0E4B6E18DEE9DE010E4B6E14DE1A6A0C
:10042200DBDF00C01AF00052FBE030D0310E1A6E52
:100432005DD0320E1A6E5AD0330E1A6E57D0410E5C
:100442001A6E54D0340E1A6E51D0350E1A6E4ED02A
:10045200360E1A6E4BD0420E1A6E48D0370E1A6EF6
:1004620045D0380E1A6E42D0390E1A6E3FD0430E66
:100472001A6E3CD02A0E1A6E39D0300E1A6E36D051
:10048200230E1A6E33D0440E1A6E30D01A50010A5F
:10049200CDE01A50020ACDE01A50030ACDE01A50FC
:1004A200040ACDE01A50050ACDE01A50060ACDE042
:1004B2001A50070ACDE01A50080ACDE01A50090A6C
:1004C200CDE01A500A0ACDE01A500B0ACDE01A50BC
:1004D2000C0ACDE01A500D0ACDE01A500E0ACDE0FA
:1004E2001A500F0ACDE01A50100ACDE01A5019180E
:1004F20005E0010E1B6E1AC019F001D01B2A010E75
:10050200236E0A0E246E1AC025F039DF1B50FF0A33
:100512000AE11B6A020E456E0A0E466E150E476E02
:10052200000E486EF7DD1BC023F0000E246E1D0E78
:10053200256E000E266EDBDE020E456E0A0E466E3C
:0E0542001D0E476E000E486EE5DD69D7FFD72F
:100550005349524558202D2053495354454D41533A
:01056000009A
:10056100202A20454D4241524341443053202A2004
:010571000089
:020000040030CA
:0D000100021F1EFF8B81FF0FC00FE00F409C
:00000001FF
